{
  "_format": "hh-sol-artifact-1",
  "contractName": "VIWERC721",
  "sourceName": "contracts/VIWERC721.sol",
  "abi": [
    {
      "inputs": [
        {
          "internalType": "string",
          "name": "name",
          "type": "string"
        },
        {
          "internalType": "string",
          "name": "symbol",
          "type": "string"
        },
        {
          "internalType": "address payable",
          "name": "_owner_address",
          "type": "address"
        },
        {
          "internalType": "address",
          "name": "_feeManager",
          "type": "address"
        }
      ],
      "stateMutability": "nonpayable",
      "type": "constructor"
    },
    {
      "anonymous": false,
      "inputs": [
        {
          "indexed": true,
          "internalType": "address",
          "name": "owner",
          "type": "address"
        },
        {
          "indexed": true,
          "internalType": "address",
          "name": "approved",
          "type": "address"
        },
        {
          "indexed": true,
          "internalType": "uint256",
          "name": "tokenId",
          "type": "uint256"
        }
      ],
      "name": "Approval",
      "type": "event"
    },
    {
      "anonymous": false,
      "inputs": [
        {
          "indexed": true,
          "internalType": "address",
          "name": "owner",
          "type": "address"
        },
        {
          "indexed": true,
          "internalType": "address",
          "name": "operator",
          "type": "address"
        },
        {
          "indexed": false,
          "internalType": "bool",
          "name": "approved",
          "type": "bool"
        }
      ],
      "name": "ApprovalForAll",
      "type": "event"
    },
    {
      "anonymous": false,
      "inputs": [
        {
          "indexed": true,
          "internalType": "address",
          "name": "previousOwner",
          "type": "address"
        },
        {
          "indexed": true,
          "internalType": "address",
          "name": "newOwner",
          "type": "address"
        }
      ],
      "name": "OwnershipTransferred",
      "type": "event"
    },
    {
      "anonymous": false,
      "inputs": [
        {
          "indexed": true,
          "internalType": "address",
          "name": "from",
          "type": "address"
        },
        {
          "indexed": true,
          "internalType": "address",
          "name": "to",
          "type": "address"
        },
        {
          "indexed": true,
          "internalType": "uint256",
          "name": "tokenId",
          "type": "uint256"
        }
      ],
      "name": "Transfer",
      "type": "event"
    },
    {
      "inputs": [
        {
          "internalType": "address",
          "name": "to",
          "type": "address"
        },
        {
          "internalType": "uint256",
          "name": "tokenId",
          "type": "uint256"
        }
      ],
      "name": "approve",
      "outputs": [],
      "stateMutability": "nonpayable",
      "type": "function"
    },
    {
      "inputs": [
        {
          "internalType": "address",
          "name": "owner",
          "type": "address"
        }
      ],
      "name": "balanceOf",
      "outputs": [
        {
          "internalType": "uint256",
          "name": "",
          "type": "uint256"
        }
      ],
      "stateMutability": "view",
      "type": "function"
    },
    {
      "inputs": [],
      "name": "feeManager",
      "outputs": [
        {
          "internalType": "address",
          "name": "",
          "type": "address"
        }
      ],
      "stateMutability": "view",
      "type": "function"
    },
    {
      "inputs": [
        {
          "internalType": "uint256",
          "name": "tokenId",
          "type": "uint256"
        }
      ],
      "name": "getApproved",
      "outputs": [
        {
          "internalType": "address",
          "name": "",
          "type": "address"
        }
      ],
      "stateMutability": "view",
      "type": "function"
    },
    {
      "inputs": [
        {
          "internalType": "address",
          "name": "owner",
          "type": "address"
        },
        {
          "internalType": "address",
          "name": "operator",
          "type": "address"
        }
      ],
      "name": "isApprovedForAll",
      "outputs": [
        {
          "internalType": "bool",
          "name": "",
          "type": "bool"
        }
      ],
      "stateMutability": "view",
      "type": "function"
    },
    {
      "inputs": [
        {
          "internalType": "address",
          "name": "_to",
          "type": "address"
        },
        {
          "internalType": "uint256",
          "name": "_tokenId",
          "type": "uint256"
        },
        {
          "internalType": "string",
          "name": "_metadata",
          "type": "string"
        }
      ],
      "name": "mintInERC20",
      "outputs": [],
      "stateMutability": "nonpayable",
      "type": "function"
    },
    {
      "inputs": [
        {
          "internalType": "address",
          "name": "_to",
          "type": "address"
        },
        {
          "internalType": "uint256",
          "name": "_tokenId",
          "type": "uint256"
        },
        {
          "internalType": "string",
          "name": "_metadata",
          "type": "string"
        }
      ],
      "name": "mintInETH",
      "outputs": [],
      "stateMutability": "payable",
      "type": "function"
    },
    {
      "inputs": [],
      "name": "name",
      "outputs": [
        {
          "internalType": "string",
          "name": "",
          "type": "string"
        }
      ],
      "stateMutability": "view",
      "type": "function"
    },
    {
      "inputs": [],
      "name": "owner",
      "outputs": [
        {
          "internalType": "address",
          "name": "",
          "type": "address"
        }
      ],
      "stateMutability": "view",
      "type": "function"
    },
    {
      "inputs": [
        {
          "internalType": "uint256",
          "name": "tokenId",
          "type": "uint256"
        }
      ],
      "name": "ownerOf",
      "outputs": [
        {
          "internalType": "address",
          "name": "",
          "type": "address"
        }
      ],
      "stateMutability": "view",
      "type": "function"
    },
    {
      "inputs": [],
      "name": "renounceOwnership",
      "outputs": [],
      "stateMutability": "nonpayable",
      "type": "function"
    },
    {
      "inputs": [
        {
          "internalType": "address",
          "name": "from",
          "type": "address"
        },
        {
          "internalType": "address",
          "name": "to",
          "type": "address"
        },
        {
          "internalType": "uint256",
          "name": "tokenId",
          "type": "uint256"
        }
      ],
      "name": "safeTransferFrom",
      "outputs": [],
      "stateMutability": "nonpayable",
      "type": "function"
    },
    {
      "inputs": [
        {
          "internalType": "address",
          "name": "from",
          "type": "address"
        },
        {
          "internalType": "address",
          "name": "to",
          "type": "address"
        },
        {
          "internalType": "uint256",
          "name": "tokenId",
          "type": "uint256"
        },
        {
          "internalType": "bytes",
          "name": "data",
          "type": "bytes"
        }
      ],
      "name": "safeTransferFrom",
      "outputs": [],
      "stateMutability": "nonpayable",
      "type": "function"
    },
    {
      "inputs": [
        {
          "internalType": "address",
          "name": "operator",
          "type": "address"
        },
        {
          "internalType": "bool",
          "name": "approved",
          "type": "bool"
        }
      ],
      "name": "setApprovalForAll",
      "outputs": [],
      "stateMutability": "nonpayable",
      "type": "function"
    },
    {
      "inputs": [
        {
          "internalType": "bytes4",
          "name": "interfaceId",
          "type": "bytes4"
        }
      ],
      "name": "supportsInterface",
      "outputs": [
        {
          "internalType": "bool",
          "name": "",
          "type": "bool"
        }
      ],
      "stateMutability": "view",
      "type": "function"
    },
    {
      "inputs": [],
      "name": "symbol",
      "outputs": [
        {
          "internalType": "string",
          "name": "",
          "type": "string"
        }
      ],
      "stateMutability": "view",
      "type": "function"
    },
    {
      "inputs": [
        {
          "internalType": "uint256",
          "name": "index",
          "type": "uint256"
        }
      ],
      "name": "tokenByIndex",
      "outputs": [
        {
          "internalType": "uint256",
          "name": "",
          "type": "uint256"
        }
      ],
      "stateMutability": "view",
      "type": "function"
    },
    {
      "inputs": [
        {
          "internalType": "address",
          "name": "owner",
          "type": "address"
        },
        {
          "internalType": "uint256",
          "name": "index",
          "type": "uint256"
        }
      ],
      "name": "tokenOfOwnerByIndex",
      "outputs": [
        {
          "internalType": "uint256",
          "name": "",
          "type": "uint256"
        }
      ],
      "stateMutability": "view",
      "type": "function"
    },
    {
      "inputs": [
        {
          "internalType": "uint256",
          "name": "tokenId",
          "type": "uint256"
        }
      ],
      "name": "tokenURI",
      "outputs": [
        {
          "internalType": "string",
          "name": "",
          "type": "string"
        }
      ],
      "stateMutability": "view",
      "type": "function"
    },
    {
      "inputs": [],
      "name": "totalSupply",
      "outputs": [
        {
          "internalType": "uint256",
          "name": "",
          "type": "uint256"
        }
      ],
      "stateMutability": "view",
      "type": "function"
    },
    {
      "inputs": [
        {
          "internalType": "address",
          "name": "from",
          "type": "address"
        },
        {
          "internalType": "address",
          "name": "to",
          "type": "address"
        },
        {
          "internalType": "uint256",
          "name": "tokenId",
          "type": "uint256"
        }
      ],
      "name": "transferFrom",
      "outputs": [],
      "stateMutability": "nonpayable",
      "type": "function"
    },
    {
      "inputs": [
        {
          "internalType": "address",
          "name": "newOwner",
          "type": "address"
        }
      ],
      "name": "transferOwnership",
      "outputs": [],
      "stateMutability": "nonpayable",
      "type": "function"
    }
  ],
  "bytecode": "0x60806040523480156200001157600080fd5b506040516200250438038062002504833981016040819052620000349162000305565b8351849084906200004d906000906020850190620001ac565b50805162000063906001906020840190620001ac565b505050620000806200007a620000b560201b60201c565b620000b9565b6200008b826200010b565b600c80546001600160a01b0319166001600160a01b0392909216919091179055506200047a915050565b3390565b600a80546001600160a01b038381166001600160a01b0319831681179093556040519116919082907f8be0079c531659141344cd1fd0a4f28419497f9722a3daafe3b4186f6b6457e090600090a35050565b6200011562000155565b6001600160a01b038116620001475760405162461bcd60e51b81526004016200013e9062000396565b60405180910390fd5b6200015281620000b9565b50565b6200015f620000b5565b6001600160a01b0316620001726200019d565b6001600160a01b0316146200019b5760405162461bcd60e51b81526004016200013e90620003dc565b565b600a546001600160a01b031690565b828054620001ba9062000411565b90600052602060002090601f016020900481019282620001de576000855562000229565b82601f10620001f957805160ff191683800117855562000229565b8280016001018555821562000229579182015b82811115620002295782518255916020019190600101906200020c565b50620002379291506200023b565b5090565b5b808211156200023757600081556001016200023c565b600082601f83011262000263578081fd5b81516001600160401b03808211156200028057620002806200044e565b604051601f8301601f19908116603f01168101908282118183101715620002ab57620002ab6200044e565b81604052838152602092508683858801011115620002c7578485fd5b8491505b83821015620002ea5785820183015181830184015290820190620002cb565b83821115620002fb57848385830101525b9695505050505050565b600080600080608085870312156200031b578384fd5b84516001600160401b038082111562000332578586fd5b620003408883890162000252565b9550602087015191508082111562000356578485fd5b50620003658782880162000252565b9350506040850151620003788162000464565b60608601519092506200038b8162000464565b939692955090935050565b60208082526026908201527f4f776e61626c653a206e6577206f776e657220697320746865207a65726f206160408201526564647265737360d01b606082015260800190565b6020808252818101527f4f776e61626c653a2063616c6c6572206973206e6f7420746865206f776e6572604082015260600190565b6002810460018216806200042657607f821691505b602082108114156200044857634e487b7160e01b600052602260045260246000fd5b50919050565b634e487b7160e01b600052604160045260246000fd5b6001600160a01b03811681146200015257600080fd5b61207a806200048a6000396000f3fe6080604052600436106101355760003560e01c8063715018a6116100ab578063c87b56dd1161006f578063c87b56dd14610342578063c9d5f6d914610362578063cb9275d914610375578063d0fb020314610395578063e985e9c5146103aa578063f2fde38b146103ca57610135565b8063715018a6146102c35780638da5cb5b146102d857806395d89b41146102ed578063a22cb46514610302578063b88d4fde1461032257610135565b806323b872dd116100fd57806323b872dd146102035780632f745c591461022357806342842e0e146102435780634f6ccce7146102635780636352211e1461028357806370a08231146102a357610135565b806301ffc9a71461013a57806306fdde0314610170578063081812fc14610192578063095ea7b3146101bf57806318160ddd146101e1575b600080fd5b34801561014657600080fd5b5061015a610155366004611957565b6103ea565b6040516101679190611a7f565b60405180910390f35b34801561017c57600080fd5b50610185610415565b6040516101679190611a8a565b34801561019e57600080fd5b506101b26101ad36600461198f565b6104a7565b6040516101679190611a0a565b3480156101cb57600080fd5b506101df6101da3660046118a6565b6104ce565b005b3480156101ed57600080fd5b506101f661056f565b6040516101679190611f6c565b34801561020f57600080fd5b506101df61021e3660046117bc565b610575565b34801561022f57600080fd5b506101f661023e3660046118a6565b6105ad565b34801561024f57600080fd5b506101df61025e3660046117bc565b6105ff565b34801561026f57600080fd5b506101f661027e36600461198f565b61061a565b34801561028f57600080fd5b506101b261029e36600461198f565b610675565b3480156102af57600080fd5b506101f66102be366004611745565b6106a9565b3480156102cf57600080fd5b506101df6106ed565b3480156102e457600080fd5b506101b2610701565b3480156102f957600080fd5b50610185610710565b34801561030e57600080fd5b506101df61031d366004611879565b61071f565b34801561032e57600080fd5b506101df61033d3660046117fc565b610735565b34801561034e57600080fd5b5061018561035d36600461198f565b610774565b6101df6103703660046118d1565b61083a565b34801561038157600080fd5b506101df6103903660046118d1565b6109c1565b3480156103a157600080fd5b506101b2610bff565b3480156103b657600080fd5b5061015a6103c5366004611784565b610c0e565b3480156103d657600080fd5b506101df6103e5366004611745565b610c3c565b60006001600160e01b0319821663780e9d6360e01b148061040f575061040f82610c76565b92915050565b60606000805461042490611fa4565b80601f016020809104026020016040519081016040528092919081815260200182805461045090611fa4565b801561049d5780601f106104725761010080835404028352916020019161049d565b820191906000526020600020905b81548152906001019060200180831161048057829003601f168201915b5050505050905090565b60006104b282610cb6565b506000908152600460205260409020546001600160a01b031690565b60006104d982610675565b9050806001600160a01b0316836001600160a01b031614156105165760405162461bcd60e51b815260040161050d90611dfd565b60405180910390fd5b806001600160a01b0316610528610cdb565b6001600160a01b031614806105445750610544816103c5610cdb565b6105605760405162461bcd60e51b815260040161050d90611e3e565b61056a8383610cdf565b505050565b60085490565b610586610580610cdb565b82610d4d565b6105a25760405162461bcd60e51b815260040161050d90611a9d565b61056a838383610dac565b60006105b8836106a9565b82106105d65760405162461bcd60e51b815260040161050d90611aea565b506001600160a01b03919091166000908152600660209081526040808320938352929052205490565b61056a83838360405180602001604052806000815250610735565b600061062461056f565b82106106425760405162461bcd60e51b815260040161050d90611e9b565b6008828154811061066357634e487b7160e01b600052603260045260246000fd5b90600052602060002001549050919050565b60008061068183610ee9565b90506001600160a01b03811661040f5760405162461bcd60e51b815260040161050d90611dc6565b60006001600160a01b0382166106d15760405162461bcd60e51b815260040161050d90611cc4565b506001600160a01b031660009081526003602052604090205490565b6106f5610f04565b6106ff6000610f43565b565b600a546001600160a01b031690565b60606001805461042490611fa4565b61073161072a610cdb565b8383610f95565b5050565b610746610740610cdb565b83610d4d565b6107625760405162461bcd60e51b815260040161050d90611a9d565b61076e84848484611038565b50505050565b606061077f8261106b565b61079b5760405162461bcd60e51b815260040161050d90611d77565b6000828152600b6020526040812080546107b490611fa4565b80601f01602080910402602001604051908101604052809291908181526020018280546107e090611fa4565b801561082d5780601f106108025761010080835404028352916020019161082d565b820191906000526020600020905b81548152906001019060200180831161081057829003601f168201915b5093979650505050505050565b610842610f04565b600c5460408051600162488b5960e11b0319815290516000926001600160a01b03169163ff6ee94e916004808301926020929190829003018186803b15801561088a57600080fd5b505afa15801561089e573d6000803e3d6000fd5b505050506040513d601f19601f820116820180604052508101906108c29190611768565b90506000600c60009054906101000a90046001600160a01b03166001600160a01b031663e61c4f086040518163ffffffff1660e01b815260040160206040518083038186803b15801561091457600080fd5b505afa158015610928573d6000803e3d6000fd5b505050506040513d601f19601f8201168201806040525081019061094c91906119a7565b9050333181111561096f5760405162461bcd60e51b815260040161050d90611f3c565b6040516001600160a01b0383169082156108fc029083906000818181858888f193505050501580156109a5573d6000803e3d6000fd5b506109b08585611088565b6109ba848461117d565b5050505050565b6109c9610f04565b600c5460408051600162488b5960e11b0319815290516000926001600160a01b03169163ff6ee94e916004808301926020929190829003018186803b158015610a1157600080fd5b505afa158015610a25573d6000803e3d6000fd5b505050506040513d601f19601f82011682018060405250810190610a499190611768565b90506000600c60009054906101000a90046001600160a01b03166001600160a01b031663c79577d46040518163ffffffff1660e01b815260040160206040518083038186803b158015610a9b57600080fd5b505afa158015610aaf573d6000803e3d6000fd5b505050506040513d601f19601f82011682018060405250810190610ad391906119a7565b90506000600c60009054906101000a90046001600160a01b03166001600160a01b031663ec55cff66040518163ffffffff1660e01b815260040160206040518083038186803b158015610b2557600080fd5b505afa158015610b39573d6000803e3d6000fd5b505050506040513d601f19601f82011682018060405250810190610b5d9190611768565b6040516323b872dd60e01b81529091506001600160a01b038216906323b872dd90610b9090339087908790600401611a1e565b602060405180830381600087803b158015610baa57600080fd5b505af1158015610bbe573d6000803e3d6000fd5b505050506040513d601f19601f82011682018060405250810190610be2919061193b565b50610bed8686611088565b610bf7858561117d565b505050505050565b600c546001600160a01b031681565b6001600160a01b03918216600090815260056020908152604080832093909416825291909152205460ff1690565b610c44610f04565b6001600160a01b038116610c6a5760405162461bcd60e51b815260040161050d90611b87565b610c7381610f43565b50565b60006001600160e01b031982166380ac58cd60e01b1480610ca757506001600160e01b03198216635b5e139f60e01b145b8061040f575061040f826111c1565b610cbf8161106b565b610c735760405162461bcd60e51b815260040161050d90611dc6565b3390565b600081815260046020526040902080546001600160a01b0319166001600160a01b0384169081179091558190610d1482610675565b6001600160a01b03167f8c5be1e5ebec7d5bd14f71427d1e84f3dd0314c0f7b2291e5b200ac8c7c3b92560405160405180910390a45050565b600080610d5983610675565b9050806001600160a01b0316846001600160a01b03161480610d805750610d808185610c0e565b80610da45750836001600160a01b0316610d99846104a7565b6001600160a01b0316145b949350505050565b826001600160a01b0316610dbf82610675565b6001600160a01b031614610de55760405162461bcd60e51b815260040161050d90611bcd565b6001600160a01b038216610e0b5760405162461bcd60e51b815260040161050d90611c49565b610e1883838360016111da565b826001600160a01b0316610e2b82610675565b6001600160a01b031614610e515760405162461bcd60e51b815260040161050d90611bcd565b600081815260046020908152604080832080546001600160a01b03199081169091556001600160a01b0387811680865260038552838620805460001901905590871680865283862080546001019055868652600290945282852080549092168417909155905184937fddf252ad1be2c89b69c2b068fc378daa952ba7f163c4a11628f55a4df523b3ef91a461056a838383600161076e565b6000908152600260205260409020546001600160a01b031690565b610f0c610cdb565b6001600160a01b0316610f1d610701565b6001600160a01b0316146106ff5760405162461bcd60e51b815260040161050d90611d42565b600a80546001600160a01b038381166001600160a01b0319831681179093556040519116919082907f8be0079c531659141344cd1fd0a4f28419497f9722a3daafe3b4186f6b6457e090600090a35050565b816001600160a01b0316836001600160a01b03161415610fc75760405162461bcd60e51b815260040161050d90611c8d565b6001600160a01b0383811660008181526005602090815260408083209487168084529490915290819020805460ff1916851515179055517f17307eab39ab6107e8899845ad3d59bd9653f200f220920489ca2b5937696c319061102b908590611a7f565b60405180910390a3505050565b611043848484610dac565b61104f84848484611286565b61076e5760405162461bcd60e51b815260040161050d90611b35565b60008061107783610ee9565b6001600160a01b0316141592915050565b6001600160a01b0382166110ae5760405162461bcd60e51b815260040161050d90611d0d565b6110b78161106b565b156110d45760405162461bcd60e51b815260040161050d90611c12565b6110e26000838360016111da565b6110eb8161106b565b156111085760405162461bcd60e51b815260040161050d90611c12565b6001600160a01b038216600081815260036020908152604080832080546001019055848352600290915280822080546001600160a01b0319168417905551839291907fddf252ad1be2c89b69c2b068fc378daa952ba7f163c4a11628f55a4df523b3ef908290a461073160008383600161076e565b6111868261106b565b6111a25760405162461bcd60e51b815260040161050d90611d77565b6000828152600b60209081526040909120825161056a92840190611636565b6001600160e01b031981166301ffc9a760e01b14919050565b6111e6848484846113a1565b60018111156112075760405162461bcd60e51b815260040161050d90611ee7565b816001600160a01b0385166112245761121f81611429565b611247565b836001600160a01b0316856001600160a01b03161461124757611247858261146d565b6001600160a01b0384166112635761125e8161150a565b6109ba565b846001600160a01b0316846001600160a01b0316146109ba576109ba84826115e3565b600061129a846001600160a01b0316611627565b1561139657836001600160a01b031663150b7a026112b6610cdb565b8786866040518563ffffffff1660e01b81526004016112d89493929190611a42565b602060405180830381600087803b1580156112f257600080fd5b505af1925050508015611322575060408051601f3d908101601f1916820190925261131f91810190611973565b60015b61137c573d808015611350576040519150601f19603f3d011682016040523d82523d6000602084013e611355565b606091505b5080516113745760405162461bcd60e51b815260040161050d90611b35565b805181602001fd5b6001600160e01b031916630a85bd0160e11b149050610da4565b506001949350505050565b600181111561076e576001600160a01b038416156113e7576001600160a01b038416600090815260036020526040812080548392906113e1908490611f8d565b90915550505b6001600160a01b0383161561076e576001600160a01b0383166000908152600360205260408120805483929061141e908490611f75565b909155505050505050565b600880546000838152600960205260408120829055600182018355919091527ff3f7a9fe364faab93b216da50a3214154f22a0a2b415b23a84c8169e8b636ee30155565b6000600161147a846106a9565b6114849190611f8d565b6000838152600760205260409020549091508082146114d7576001600160a01b03841660009081526006602090815260408083208584528252808320548484528184208190558352600790915290208190555b5060009182526007602090815260408084208490556001600160a01b039094168352600681528383209183525290812055565b60085460009061151c90600190611f8d565b6000838152600960205260408120546008805493945090928490811061155257634e487b7160e01b600052603260045260246000fd5b90600052602060002001549050806008838154811061158157634e487b7160e01b600052603260045260246000fd5b60009182526020808320909101929092558281526009909152604080822084905585825281205560088054806115c757634e487b7160e01b600052603160045260246000fd5b6001900381819060005260206000200160009055905550505050565b60006115ee836106a9565b6001600160a01b039093166000908152600660209081526040808320868452825280832085905593825260079052919091209190915550565b6001600160a01b03163b151590565b82805461164290611fa4565b90600052602060002090601f01602090048101928261166457600085556116aa565b82601f1061167d57805160ff19168380011785556116aa565b828001600101855582156116aa579182015b828111156116aa57825182559160200191906001019061168f565b506116b69291506116ba565b5090565b5b808211156116b657600081556001016116bb565b600067ffffffffffffffff808411156116ea576116ea611ff5565b604051601f8501601f19908116603f0116810190828211818310171561171257611712611ff5565b8160405280935085815286868601111561172b57600080fd5b858560208301376000602087830101525050509392505050565b600060208284031215611756578081fd5b81356117618161200b565b9392505050565b600060208284031215611779578081fd5b81516117618161200b565b60008060408385031215611796578081fd5b82356117a18161200b565b915060208301356117b18161200b565b809150509250929050565b6000806000606084860312156117d0578081fd5b83356117db8161200b565b925060208401356117eb8161200b565b929592945050506040919091013590565b60008060008060808587031215611811578081fd5b843561181c8161200b565b9350602085013561182c8161200b565b925060408501359150606085013567ffffffffffffffff81111561184e578182fd5b8501601f8101871361185e578182fd5b61186d878235602084016116cf565b91505092959194509250565b6000806040838503121561188b578182fd5b82356118968161200b565b915060208301356117b181612020565b600080604083850312156118b8578182fd5b82356118c38161200b565b946020939093013593505050565b6000806000606084860312156118e5578283fd5b83356118f08161200b565b925060208401359150604084013567ffffffffffffffff811115611912578182fd5b8401601f81018613611922578182fd5b611931868235602084016116cf565b9150509250925092565b60006020828403121561194c578081fd5b815161176181612020565b600060208284031215611968578081fd5b81356117618161202e565b600060208284031215611984578081fd5b81516117618161202e565b6000602082840312156119a0578081fd5b5035919050565b6000602082840312156119b8578081fd5b5051919050565b60008151808452815b818110156119e4576020818501810151868301820152016119c8565b818111156119f55782602083870101525b50601f01601f19169290920160200192915050565b6001600160a01b0391909116815260200190565b6001600160a01b039384168152919092166020820152604081019190915260600190565b6001600160a01b0385811682528416602082015260408101839052608060608201819052600090611a75908301846119bf565b9695505050505050565b901515815260200190565b60006020825261176160208301846119bf565b6020808252602d908201527f4552433732313a2063616c6c6572206973206e6f7420746f6b656e206f776e6560408201526c1c881bdc88185c1c1c9bdd9959609a1b606082015260800190565b6020808252602b908201527f455243373231456e756d657261626c653a206f776e657220696e646578206f7560408201526a74206f6620626f756e647360a81b606082015260800190565b60208082526032908201527f4552433732313a207472616e7366657220746f206e6f6e20455243373231526560408201527131b2b4bb32b91034b6b83632b6b2b73a32b960711b606082015260800190565b60208082526026908201527f4f776e61626c653a206e6577206f776e657220697320746865207a65726f206160408201526564647265737360d01b606082015260800190565b60208082526025908201527f4552433732313a207472616e736665722066726f6d20696e636f72726563742060408201526437bbb732b960d91b606082015260800190565b6020808252601c908201527f4552433732313a20746f6b656e20616c7265616479206d696e74656400000000604082015260600190565b60208082526024908201527f4552433732313a207472616e7366657220746f20746865207a65726f206164646040820152637265737360e01b606082015260800190565b60208082526019908201527f4552433732313a20617070726f766520746f2063616c6c657200000000000000604082015260600190565b60208082526029908201527f4552433732313a2061646472657373207a65726f206973206e6f7420612076616040820152683634b21037bbb732b960b91b606082015260800190565b6020808252818101527f4552433732313a206d696e7420746f20746865207a65726f2061646472657373604082015260600190565b6020808252818101527f4f776e61626c653a2063616c6c6572206973206e6f7420746865206f776e6572604082015260600190565b6020808252602f908201527f4552433732314d657461646174613a2055524920717565727920666f72206e6f60408201526e3732bc34b9ba32b73a103a37b5b2b760891b606082015260800190565b60208082526018908201527f4552433732313a20696e76616c696420746f6b656e2049440000000000000000604082015260600190565b60208082526021908201527f4552433732313a20617070726f76616c20746f2063757272656e74206f776e656040820152603960f91b606082015260800190565b6020808252603d908201527f4552433732313a20617070726f76652063616c6c6572206973206e6f7420746f60408201527f6b656e206f776e6572206f7220617070726f76656420666f7220616c6c000000606082015260800190565b6020808252602c908201527f455243373231456e756d657261626c653a20676c6f62616c20696e646578206f60408201526b7574206f6620626f756e647360a01b606082015260800190565b60208082526035908201527f455243373231456e756d657261626c653a20636f6e7365637574697665207472604082015274185b9cd9995c9cc81b9bdd081cdd5c1c1bdc9d1959605a1b606082015260800190565b602080825260169082015275131858dac813d9881155120811995948105b5bdd5b9d60521b604082015260600190565b90815260200190565b60008219821115611f8857611f88611fdf565b500190565b600082821015611f9f57611f9f611fdf565b500390565b600281046001821680611fb857607f821691505b60208210811415611fd957634e487b7160e01b600052602260045260246000fd5b50919050565b634e487b7160e01b600052601160045260246000fd5b634e487b7160e01b600052604160045260246000fd5b6001600160a01b0381168114610c7357600080fd5b8015158114610c7357600080fd5b6001600160e01b031981168114610c7357600080fdfea26469706673582212207b6e1614827c22befe32af86b6325ec65822d872ec7e9c5902197c0078cac7a964736f6c63430008010033",
  "linkReferences": {},
  "deployedLinkReferences": {}
}